:020000040000FA
:060000000DEF1AF01200E2
:020020000000DE
:0E002200D9CFE6FFE1CFD9FF040EE126DF6A59
:10003000FB0EDB50070B100DFC0EDB500F0BF3100B
:10004000E76E010EE7CFDBFFFB0EDB50070B100D59
:10005000FC0EDB500F0BF3108009E76E020EE7CFAA
:10006000DBFFFB0EDB50070B100DFC0EDB500F0B04
:10007000F310E76E030EE7CFDBFFFD0EDBCFE9FFEA
:10008000FE0EDBCFEAFF040EE926000EEA22EECFD9
:1000900000F0EFCF01F00A0EE66EE66AE66AE66A65
:1000A000030EE66EE66AE66AE66AD950010FE66E6E
:1000B000000EDA20E66EFD0EDBCFE9FFFE0EDBCF91
:1000C000EAFFEECFE6FFEFCFE6FF04D001C0FAFF74
:1000D0000050F96EFBDF026E0C0EE15E0250DF6E27
:1000E000DF50006E040EE15C02E2E16AE552E16E6F
:1000F0000050E552E7CFD9FF1200D9CFE6FFE1CF9C
:10010000D9FF050EE126DF6A010EDB6AFB0EDBCFAD
:10011000E9FFFC0EDBCFEAFFEF6A080EDF5C01E3CC
:1001200087D00F0EDF14E76E020EE7CFDBFFFD0E68
:10013000DBCFE9FFFE0EDBCFEAFF040EE926000E5F
:10014000EA22EECF00F0EFCF01F00A0EE66EE66A8B
:10015000E66AE66A010EE66EE66AE66AE66AD95083
:10016000020FE66E000EDA20E66EFD0EDBCFE9FF31
:10017000FE0EDBCFEAFFEECFE6FFEFCFE6FF04D0C7
:1001800001C0FAFF0050F96EFBDF026E0C0EE15E5B
:10019000025000092AE0FD0EDBCFE9FFFE0EDBCFA7
:1001A000EAFF020EE926000EEA22EECF00F0EFCFC2
:1001B00001F0D950040FE66E000EDA20E66EFD0E57
:1001C000DBCFE9FFFE0EDBCFEAFFEECFE6FFEFCF9E
:1001D000E6FF04D001C0FAFF0050F96EFBDFE552E4
:1001E000E552E552E552000902E1000E30D0040E5E
:1001F000DB0402E1010E01D0000EE76E030EE7CF33
:10020000DBFFD950030FE96EDACFEAFFDF50070BAF
:1002100004E0EF46EF90E806FCE1010EDBCFE7FFDC
:10022000030EDB50E712010EE7CFDBFFDF2A75D7A5
:10023000010EDB1CE76E010EE7CFDBFFFB0EDBCF11
:10024000E9FFFC0EDBCFEAFF010EDBCFEFFF006E14
:10025000050EE15C02E2E16AE552E16E0050E55212
:10026000E7CFD9FF1200D9CFE6FFE1CFD9FF020EC9
:10027000E126FC0EDB500F0BDF6EFC0EDB380F0BA4
:10028000E76E010EE7CFDBFFE66ADFCFE6FFFD0E8C
:10029000DBCFE6FFFE0EDBCFE6FFC3DEE552E55225
:1002A000E552E552000913E0010EE66EDBCFE6FFF2
:1002B000FD0EDBCFE6FFFE0EDBCFE6FFB2DEE55242
:1002C000E552E552E552000902E0010E01D0000EB0
:1002D000006E020EE15C02E2E16AE552E16E00505E
:1002E000E552E7CFD9FF1200D9CFE6FFE1CFD9FF22
:1002F0000C0EE126FD0EDBCFE9FFFE0EDBCFEAFFA1
:10030000060EE926000EEA22EECFDEFFEDCFDDFF7E
:10031000DECFE9FFDDCFEAFF020EEECFDBFF030EFB
:10032000EECFDBFF040EEECFDBFF050EEECFDBFFE3
:10033000DECFE9FFDDCFEAFFF90EDBCFEEFFFA0EED
:10034000DBCFEEFFFB0EDBCFEEFFFC0EDBCFEEFFD5
:100350000F0E006E016A026A036AD950020FE96E3D
:10036000DACFEAFFEE500016EE500116EE500216FC
:10037000EE5003160F0E046E056A066A076AD9501E
:10038000F90FE96EFF0EDA20EA6EEE500416EE5019
:100390000516EE500616EE5007160050041808E138
:1003A0000150051805E10250061802E10350071834
:1003B00013E0020EE66EF90EDBCFE6FFFD0EDBCF9B
:1003C000E6FFFE0EDBCFE6FF2CDEE552E552E552FE
:1003D000E552000901E1B7D2D950020FE96EDACF38
:1003E000EAFF040EE76ED890030EEB32020EEB32FA
:1003F000010EEB32EF32E706F6E1D950F90FE96E64
:10040000FF0EDA20EA6E040EE76ED890030EEB3290
:10041000020EEB32010EEB32EF32E706F6E10F0E81
:10042000006E016A026A036AD950020FE96EDACFE0
:10043000EAFFEE500016EE500116EE500216EE5096
:1004400003160F0E046E056A066A076AD950F90F83
:10045000E96EFF0EDA20EA6EEE500416EE50051635
:10046000EE500616EE5007160050041808E1015031
:10047000051805E10250061802E10350071813E0C1
:10048000030EE66EF90EDBCFE6FFFD0EDBCFE6FFD7
:10049000FE0EDBCFE6FFC5DDE552E552E552E55243
:1004A000000901E150D2D950020FE96EDACFEAFF1C
:1004B000040EE76ED890030EEB32020EEB32010E03
:1004C000EB32EF32E706F6E1D950F90FE96EFF0E95
:1004D000DA20EA6E040EE76ED890030EEB32020EBD
:1004E000EB32010EEB32EF32E706F6E10F0E006E53
:1004F000016A026A036AD950020FE96EDACFEAFF95
:10050000EE500016EE500116EE500216EE50031695
:100510000F0E046E056A066A076AD950F90FE96E74
:10052000FF0EDA20EA6EEE500416EE500516EE507D
:100530000616EE5007160050041808E10150051881
:1005400005E10250061802E10350071813E0040EFB
:10055000E66EF90EDBCFE6FFFD0EDBCFE6FFFE0E0B
:10056000DBCFE6FF5EDDE552E552E552E5520009DC
:1005700001E1E9D1D950020FE96EDACFEAFF040EAA
:10058000E76ED890030EEB32020EEB32010EEB3227
:10059000EF32E706F6E1D950F90FE96EFF0EDA20E7
:1005A000EA6E040EE76ED890030EEB32020EEB32C9
:1005B000010EEB32EF32E706F6E1020EDBCF00F080
:1005C000030EDBCF01F0040EDBCF02F0050EDBCF14
:1005D00003F0D950F90FE96EFF0EDA20EA6E0050F1
:1005E000EE1808E10150EE1805E10250EE1802E1A4
:1005F0000350EE1801E1C2D1800E006E016A026A5A
:10060000036AD950F90FE96EFF0EDA20EA6EEE5058
:100610000016EE500116EE500216EE500316070EAD
:10062000D8900332023201320032E806F9E1400E7E
:10063000046E056A066A076AD950F90FE96EFF0E63
:10064000DA20EA6EEE500416EE500516EE5006164D
:10065000EE500716050ED8900732063205320432E6
:10066000E806F9E10450001205500112065002128A
:1006700007500312200E086E096A0A6A0B6AD950E5
:10068000F90FE96EFF0EDA20EA6EEE500816EE5012
:100690000916EE500A16EE500B16030ED8900B32C8
:1006A0000A3209320832E806F9E10850001209500E
:1006B00001120A5002120B500312100E0C6E0D6A3A
:1006C0000E6A0F6AD950F90FE96EFF0EDA20EA6E52
:1006D000EE500C16EE500D16EE500E16EE500F1694
:1006E000D8900F320E320D320C320C5000120D50D9
:1006F00001120E5002120F500312080E106E116AF2
:10070000126A136AD950F90FE96EFF0EDA20EA6E09
:10071000EE501016EE501116EE501216EE50131643
:10072000010E1F0B07E0D890103611361236133623
:10073000E806F9E110500012115001121250021295
:1007400013500312040E146E156A166A176AD950F4
:10075000F90FE96EFF0EDA20EA6EEE501416EE5035
:100760001516EE501616EE501716030E1F0B07E067
:10077000D8901436153616361736E806F9E11450B7
:100780000012155001121650021217500312020ED9
:10079000186E196A1A6A1B6AD950F90FE96EFF0EB2
:1007A000DA20EA6EEE501816EE501916EE501A16B0
:1007B000EE501B16050E1F0B07E0D89018361936A1
:1007C0001A361B36E806F9E11850001219500112CA
:1007D0001A5002121B500312010E1C6E1D6A1E6A73
:1007E0001F6AD950F90FE96EFF0EDA20EA6EEE505B
:1007F0001C16EE501D16EE501E16EE501F16070E5C
:100800001F0B07E0D8901C361D361E361F36E80633
:10081000F9E11C5000121D5001121E5002121F500F
:100820000312F90E00C0DBFFFA0EDB6AFB0EDB6A77
:10083000FC0EDB6ADECFE9FFDDCFEAFF080EE9261A
:10084000000EEA220C0EE926000EEA22EECFE6FFA9
:10085000EECFE6FFEECFE6FFEFCFE6FFFD0EDBCFFC
:10086000E6FFFE0EDBCFE6FF34D9006E060EE15E3A
:100870000050E76E0B0EE7CFDBFF060EDB6A070EBC
:10088000DB6A080EDB6A090EDB6AD950060FE96ED7
:10089000DACFEAFF080EEE5C000EEE58000EEE58BE
:1008A000000EEE586BE2010E006E016A026A036AE6
:1008B000D950F90FE96EFF0EDA20EA6EEE500016FD
:1008C000EE500116EE500216EE50031600500110C5
:1008D0000210031002E0010E01D0000EE76E0A0EB6
:1008E000E7CFDBFF050EE66E0B0EDBCFE6FF0A0E51
:1008F000DB50E552E710E66EFD0EDBCFE6FFFE0EA5
:10090000DBCFE6FF11EC00F0E552E552E552E5528F
:10091000000919E0050EE66E0B0EDBCFE6FF0A0EAE
:10092000DB500209E552E710E66EFD0EDBCFE6FF75
:10093000FE0EDBCFE6FF11EC00F0E552E552E5528A
:10094000E552000902E1000E1AD0D950F90FE96E04
:10095000FF0EDA20EA6ED890030EEB32020EEB3275
:10096000010EEB32EF32D950060FE96EDACFEAFF13
:10097000EE2A000EEE22EE22EE2287D7010E006E46
:100980000C0EE15C02E2E16AE552E16E0050E552D4
:10099000E7CFD9FF1200D9CFE6FFE1CFD9FF040E90
:1009A000E126FD0EDBCFE9FFFE0EDBCFEAFF060EF0
:1009B000E926000EEA22EECFDEFFEDCFDDFFDECF2F
:1009C000E9FFDDCFEAFF080EE926000EEA220C0E51
:1009D000E926000EEA22EECFE6FFEECFE6FFEECFED
:1009E000E6FFEFCFE6FFFD0EDBCFE6FFFE0EDBCF2F
:1009F000E6FF6FD8006E060EE15E0050E76E020E55
:100A0000E7CFDBFF050EE66E020EDBCFE6FFFD0E45
:100A1000DBCFE6FFFE0EDBCFE6FF11EC00F0E55288
:100A2000E552E552E552E76E030EE7CFDBFFDB5000
:100A3000006E040EE15C02E2E16AE552E16E0050F4
:100A4000E552E7CFD9FF1200D9CFE6FFE1CFD9FFBA
:100A5000E652F90EDBCF25F0FA0EDBCF26F0FB0EC7
:100A6000DBCF27F0FC0EDBCF28F0040E251805E1C4
:100A7000265003E1275001E1285021E0030E2518FC
:100A800005E1265003E1275001E1285016E0020E4F
:100A9000251805E1265003E1275001E128500BE01D
:100AA000010E25180EE126500CE127500AE12850CE
:100AB00008E1DF6A08D0010E05D0020E03D0030E54
:100AC00001D0030EDF6EDF50E552E552E7CFD9FFCC
:100AD0001200D9CFE6FFE1CFD9FFE652F90EDBCF06
:100AE00025F0FA0EDBCF26F0FB0EDBCF27F0FC0E55
:100AF000DBCF28F0040E251805E1265003E127502E
:100B000001E1285016E0020E251805E1265003E108
:100B1000275001E128500BE0010E25180CE126506A
:100B20000AE1275008E1285006E1040E05D0080E1E
:100B300003D0DF6A02D0010EDF6EDF50E552E552CE
:100B4000E7CFD9FF1200D9CFE6FFE1CFD9FF020EE0
:100B5000E126FD0EDBCFE9FFFE0EDBCFEAFF060E3E
:100B6000E926000EEA22EECFDEFFEDCFDDFF070E15
:100B7000E66E020EE66EFD0EDBCFE6FFFE0EDBCF6D
:100B8000E6FF11EC00F0E552E552E552E5520009AE
:100B900032E0060EE66EDECFE9FFDDCFEAFF080E9B
:100BA000E926000EEA22080EE926000EEA22EECF20
:100BB000E6FFEECFE6FFEECFE6FFEFCFE6FFFD0E5E
:100BC000DBCFE6FFFE0EDBCFE6FF3EDF006E060E5C
:100BD000E15E0050E66EFD0EDBCFE6FFFE0EDBCFE2
:100BE000E6FF11EC00F0E552E552E552E55200094E
:100BF00002E0010E01D0000E006E020EE15C02E286
:100C0000E16AE552E16E0050E552E7CFD9FF1200EC
:100C1000D9CFE6FFE1CFD9FF0A0EE126FD0EDBCFEB
:100C2000E9FFFE0EDBCFEAFF060EE926000EEA2200
:100C3000EECFDEFFEDCFDDFF060EE66EDECFE9FF85
:100C4000DDCFEAFF080EE926000EEA22080EE926AB
:100C5000000EEA22EECFE6FFEECFE6FFEECFE6FF94
:100C6000EFCFE6FFFD0EDBCFE6FFFE0EDBCFE6FFAC
:100C7000EBDE006E060EE15E00500409E66EFD0E2E
:100C8000DBCFE6FFFE0EDBCFE6FF11EC00F0E55216
:100C9000E552E552E55200095CE0070EE66EDECF54
:100CA000E9FFDDCFEAFF080EE926000EEA22040E76
:100CB000E926000EEA22010EEE1808E1EE5006E1E8
:100CC000EE5004E1EE5002E1000E01D0080E0209E0
:100CD000E66EFD0EDBCFE6FFFE0EDBCFE6FF11EC8E
:100CE00000F0E552E552E552E552000932E0DECF70
:100CF000E9FFDDCFEAFF180EE926000EEA22D880D0
:100D0000EE54000EEE54000EEE54000EEE541FE2B0
:100D1000DECFE9FFDDCFEAFF180EE926000EEA225A
:100D2000020EEECFDBFF030EEECFDBFF040EEECFA5
:100D3000DBFF050EEECFDBFFD950020FE66E000E93
:100D4000DA20E66E8AEC19F0E552E5520009010E50
:100D500001D0000E006E0A0EE15C02E2E16AE5528B
:100D6000E16E0050E552E7CFD9FF1200D9CFE6FF80
:100D7000E1CFD9FF0A0EE126FD0EDBCFE9FFFE0E23
:100D8000DBCFEAFF060EE926000EEA22EECFDEFFF9
:100D9000EDCFDDFF070EE66EDECFE9FFDDCFEAFF28
:100DA000080EE926000EEA22040EE926000EEA22C9
:100DB000010EEE1808E1EE5006E1EE5004E1EE50AF
:100DC00002E1000E01D0080E02090409E66EFD0ED4
:100DD000DBCFE6FFFE0EDBCFE6FF11EC00F0E552C5
:100DE000E552E552E552000964E0060EE66EDECFFC
:100DF000E9FFDDCFEAFF080EE926000EEA22080E21
:100E0000E926000EEA22EECFE6FFEECFE6FFEECFB8
:100E1000E6FFEFCFE6FFFD0EDBCFE6FFFE0EDBCFFA
:100E2000E6FF12DE006E060EE15E005004090809BE
:100E3000E66EFD0EDBCFE6FFFE0EDBCFE6FF11EC2C
:100E400000F0E552E552E552E552000932E0DECF0E
:100E5000E9FFDDCFEAFF180EE926000EEA22D8806E
:100E6000EE54000EEE54000EEE54000EEE541FE24F
:100E7000DECFE9FFDDCFEAFF180EE926000EEA22F9
:100E8000020EEECFDBFF030EEECFDBFF040EEECF44
:100E9000DBFF050EEECFDBFFD950020FE66E000E32
:100EA000DA20E66E8AEC19F0E552E5520009010EEF
:100EB00001D0000E006E0A0EE15C02E2E16AE5522A
:100EC000E16E0050E552E7CFD9FF1200D9CFE6FF1F
:100ED000E1CFD9FF0C0EE126FD0EDBCFE9FFFE0EC0
:100EE000DBCFEAFF060EE926000EEA22EECFDEFF98
:100EF000EDCFDDFFDECFE9FFDDCFEAFF080EE9260B
:100F0000000EEA22080EE926000EEA22EECF00F0DB
:100F1000EECF01F0EECF02F0EFCF03F0020E00189B
:100F200005E1015003E1025001E1035027E0030E07
:100F3000001805E1015003E1025001E103501EE0F9
:100F4000040E001805E1015003E1025001E10350D5
:100F500015E0010E001866E1015064E1025062E103
:100F6000035060E1E00EF36E020EF3CFDBFFC80E1C
:100F7000F36E030EF3CFDBFF100E0AD0900EF36E6C
:100F8000020EF3CFDBFFD00EF36E030EF3CFDBFFC9
:100F9000F36E040EF3CFDBFF050EDB6AD950020FB0
:100FA000E66E000EDA20E66E8AEC19F0E552E552A4
:100FB000000938E0DECFE9FFDDCFEAFF080EE926C1
:100FC000000EEA22080EE926000EEA22EECF00F01B
:100FD000EECF01F0EECF02F0EFCF03F0020E0018DB
:100FE00005E1015003E1025001E1035023E0030E4B
:100FF000001805E1015003E1025001E103501AE03D
:10100000040E001805E1015003E1025001E1035014
:1010100011E0010E001805E1015003E1025001E169
:10102000035002E0000E6CD0010EF36E0A0EF3CFF7
:10103000DBFF02D00A0EDB6AFD0EDBCFE9FFFE0EFE
:10104000DBCFEAFF040EE926000EEA22EECF00F025
:10105000EFCF01F00A0EE66EE66AE66AE66A010E76
:10106000E66EE66AE66AE66AD9500A0FE66E000E98
:10107000DA20E66EFD0EDBCFE9FFFE0EDBCFEAFFE6
:10108000EECFE6FFEFCFE6FF04D001C0FAFF00503D
:10109000F96EFBDF026E0C0EE15E025000092FE0DC
:1010A000FD0EDBCFE9FFFE0EDBCFEAFF020EE926E5
:1010B000000EEA22EECF03F0EFCF04F0D9500B0F71
:1010C000E66E000EDA20E66EFD0EDBCFE9FFFE0EC7
:1010D000DBCFEAFFEECFE6FFEFCFE6FF04D004C0A0
:1010E000FAFF0350F96EFBDFE552E552E552E55297
:1010F000000905E00B0EDB5002E1010E01D0000EED
:10110000006E0C0EE15C02E2E16AE552E16E005015
:10111000E552E7CFD9FF1200D9CFE6FFE1CFD9FFE3
:10112000FD0EDBCFE9FFFE0EDBCFEAFF080EE9265E
:10113000000EEA22010EEE6EEE6AEE6AEE6AFD0E17
:10114000DBCFE9FFFE0EDBCFEAFF080EE926000E3B
:10115000EA22040EE926000EEA22010EEE6EEE6A85
:10116000EE6AEE6AFD0EDBCFE9FFFE0EDBCFEAFF93
:10117000080EE926000EEA22080EE926000EEA22F1
:10118000040EEE6EEE6AEE6AEE6AFD0EDBCFE9FF4C
:10119000FE0EDBCFEAFF080EE926000EEA220C0E57
:1011A000E926000EEA22040EEE6EEE6AEE6AEE6AA0
:1011B000010EE552E7CFD9FF1200D9CFE6FFE1CF0C
:1011C000D9FFFD0EDBCFE9FFFE0EDBCFEAFF180EE5
:1011D000E926000EEA22EE6AEE6AEE6AEE6AFD0E7B
:1011E000DBCFE9FFFE0EDBCFEAFF180EE926000E8B
:1011F000EA22040EE926000EEA22EE6AEE6AEE6AA0
:10120000EE6A010EE552E7CFD9FF1200D9CFE6FF13
:10121000E1CFD9FF020EE126E00EDE6E020EDD6E9A
:10122000DECFE9FFDDCFEAFFEE68EE68EE68EE683C
:10123000DECFE9FFDDCFEAFF040EE926000EEA2249
:10124000EE68EE68EE68EE68DECFE6FFDDCFE6FF23
:1012500063DFE552E552DECFE6FFDDCFE6FFADDF2F
:10126000E552E552DECF00F0DDCF01F000C0F3FF24
:1012700001C0F4FF020EE15C02E2E16AE552E16EB8
:10128000E552E7CFD9FF1200D9CFE6FFE552E7CF0D
:10129000D9FF1200D9CFE6FFE1CFD9FF030EE12637
:1012A000FD0EDBCFE9FFFE0EDBCFEAFF060EE926DF
:1012B000000EEA22EECFDEFFEDCFDDFF020EDB6A8D
:1012C000F90EDBCF25F0FA0EDBCF26F0FB0EDBCFDD
:1012D00027F0FC0EDBCF28F0010E251805E1265083
:1012E00003E1275001E128504CE0040E251805E1E8
:1012F000265003E1275001E1285025E0020E251871
:1013000071E126506FE127506DE128506BE1DECF8F
:10131000E9FFDDCFEAFF080EE926000EEA22F90E0A
:10132000DBCFEEFFFA0EDBCFEEFFFB0EDBCFEEFFE7
:10133000FC0EDBCFEEFFFD0EDBCFE6FFFE0EDBCFBC
:10134000E6FF66DC1BD0DECFE9FFDDCFEAFF080E4B
:10135000E926000EEA22F90EDBCFEEFFFA0EDBCF14
:10136000EEFFFB0EDBCFEEFFFC0EDBCFEEFFFD0E44
:10137000DBCFE6FFFE0EDBCFE6FFF8DCE552E55201
:101380002DD0DECFE6FFDDCFE6FFC6DEE552E5522B
:10139000000921E0DECFE6FFDDCFE6FF0EDFE552FC
:1013A000E552000918E0FD0EDBCFE6FFFE0EDBCFB5
:1013B000E6FFA3EC05F0E552E55200090CE0FD0E56
:1013C000DBCFE6FFFE0EDBCFE6FFCBEC04F0E55211
:1013D000E552000902E1000E01D0010EE76E020E97
:1013E000E7CFDBFF020EDB50006E030EE15C02E292
:1013F000E16AE552E16E0050E552E7CFD9FF1200F5
:10140000D9CFE6FFE1CFD9FF030EE126FD0EDBCFFA
:10141000E9FFFE0EDBCFEAFF060EE926000EEA2208
:10142000EECFDEFFEDCFDDFF020EDB6AF90EDBCF84
:1014300025F0FA0EDBCF26F0FB0EDBCF27F0FC0EFB
:10144000DBCF28F0020E251805E1265003E12750D6
:1014500001E128501BE0010E251846E1265044E129
:10146000275042E1285040E1DECFE9FFDDCFEAFF1F
:10147000080EE926000EEA22010EEE1835E1EE50C4
:1014800033E1EE5031E1EE502FE111D0DECFE9FF34
:10149000DDCFEAFF080EE926000EEA22010EEE1863
:1014A00023E1EE5021E1EE501FE1EE501DE1DECFD1
:1014B000E9FFDDCFEAFF080EE926000EEA22040E5E
:1014C000E926000EEA22F90EDBCFEEFFFA0EDBCFA3
:1014D000EEFFFB0EDBCFEEFFFC0EDBCFEEFF010ECF
:1014E000F36E020EF3CFDBFF020EDB50006E030E35
:1014F000E15C02E2E16AE552E16E0050E552E7CFBD
:10150000D9FF1200D9CFE6FFE1CFD9FF030EE126C4
:10151000FD0EDBCFE9FFFE0EDBCFEAFF060EE9266C
:10152000000EEA22EECFDEFFEDCFDDFF020EDB6A1A
:10153000F90EDBCF25F0FA0EDBCF26F0FB0EDBCF6A
:1015400027F0FC0EDBCF28F0040E251805E126500D
:1015500003E1275001E1285051E0030E251805E171
:10156000265003E1275001E1285036E0020E2518ED
:1015700005E1265003E1275001E128501BE0010E50
:1015800025186AE1265068E1275066E1285064E199
:10159000DECFE9FFDDCFEAFF080EE926000EEA22E2
:1015A000010EEE1859E1EE5057E1EE5055E1EE50C4
:1015B00053E135D0DECFE9FFDDCFEAFF080EE926A3
:1015C000000EEA22010EEE1847E1EE5045E1EE5022
:1015D00043E1EE5041E123D0DECFE9FFDDCFEAFF6A
:1015E000080EE926000EEA22010EEE1835E1EE5053
:1015F00033E1EE5031E1EE502FE111D0DECFE9FFC3
:10160000DDCFEAFF080EE926000EEA22010EEE18F1
:1016100023E1EE5021E1EE501FE1EE501DE1DECF5F
:10162000E9FFDDCFEAFF080EE926000EEA22080EE8
:10163000E926000EEA22F90EDBCFEEFFFA0EDBCF31
:10164000EEFFFB0EDBCFEEFFFC0EDBCFEEFF010E5D
:10165000F36E020EF3CFDBFF020EDB50006E030EC3
:10166000E15C02E2E16AE552E16E0050E552E7CF4B
:10167000D9FF1200D9CFE6FFE1CFD9FF030EE12653
:10168000FD0EDBCFE9FFFE0EDBCFEAFF060EE926FB
:10169000000EEA22EECFDEFFEDCFDDFF020EDB6AA9
:1016A000F90EDBCF25F0FA0EDBCF26F0FB0EDBCFF9
:1016B00027F0FC0EDBCF28F0040E251805E126509C
:1016C00003E1275001E1285012E0020E251805E140
:1016D000265003E1275001E1285009E0010E2518AA
:1016E00023E1265021E127501FE128501DE1DECFE4
:1016F000E9FFDDCFEAFF080EE926000EEA220C0E14
:10170000E926000EEA22F90EDBCFEEFFFA0EDBCF60
:10171000EEFFFB0EDBCFEEFFFC0EDBCFEEFF010E8C
:10172000F36E020EF3CFDBFF020EDB500AE0FD0E7C
:10173000DBCFE6FFFE0EDBCFE6FFCBEC04F0E5529D
:10174000E552020EDB50006E030EE15C02E2E16A3C
:10175000E552E16E0050E552E7CFD9FF1200D9CF34
:10176000E6FFE1CFD9FFE652D950F90FE96EFF0E3F
:10177000DA20EA6EEECFE6FFEECFE6FFEECFE6FF31
:10178000EFCFE6FFFD0EDBCFE6FFFE0EDBCFE6FF81
:1017900074EC01F0006E060EE15E0050DF6EDF506B
:1017A000E552E552E7CFD9FF1200D9CFE6FFE1CFEE
:1017B000D9FF090EE126D950F90FE96EFF0EDA20A4
:1017C000EA6EEECFE6FFEECFE6FFEECFE6FFEFCF1D
:1017D000E6FFFD0EDBCFE6FFFE0EDBCFE6FF74EC8F
:1017E00001F0006E060EE15E0050DF6EDF502DE06E
:1017F000D950F50FE96EFF0EDA20EA6ED880000EA0
:10180000EE54000EEE54000EEE54000EEE541DE2A7
:10181000D950F50FE96EFF0EDA20EA6E010EEECF19
:10182000DBFF020EEECFDBFF030EEECFDBFF040E7D
:10183000EECFDBFFD950010FE66E000EDA20E66E28
:101840008AEC19F0E552E5520009DF50006E090EEE
:10185000E15C02E2E16AE552E16E0050E552E7CF59
:10186000D9FF1200D9CFE6FFE1CFD9FF030EE12661
:10187000FD0EDBCFE9FFFE0EDBCFEAFF060EE92609
:10188000000EEA22EECFDEFFEDCFDDFFDECFE9FF77
:10189000DDCFEAFF080EE926000EEA22020EEE185E
:1018A00005E1EE5003E1EE5001E1EE5002E0000EE2
:1018B00017D0FB0EDBCFE6FFFC0EDBCFE6FFFD0E05
:1018C000DBCFE6FFFE0EDBCFE6FF7DEC00F0E5525E
:1018D000E552E552E552E76E020EE7CFDBFFDB5043
:1018E000006E030EE15C02E2E16AE552E16E005037
:1018F000E552E7CFD9FF1200D9CFE6FFE1CFD9FFFC
:10190000030EE126FD0EDBCFE9FFFE0EDBCFEAFF83
:10191000060EE926000EEA22EECFDEFFEDCFDDFF58
:10192000DECFE9FFDDCFEAFF080EE926000EEA224E
:10193000040EEE1805E1EE5003E1EE5001E1EE5029
:1019400002E0000E13D0FC0EDBCFE6FFFD0EDBCF76
:10195000E6FFFE0EDBCFE6FF33EC01F0E552E55289
:10196000E552E76E020EE7CFDBFFDB50006E030EA1
:10197000E15C02E2E16AE552E16E0050E552E7CF38
:10198000D9FF1200D9CFE6FFE1CFD9FF030EE12640
:10199000FD0EDBCFE9FFFE0EDBCFEAFF060EE926E8
:1019A000000EEA22EECFDEFFEDCFDDFF020EDB6A96
:1019B000FB0EDBCFE9FFFC0EDBCFEAFFEF6ADECFE9
:1019C000E9FFDDCFEAFF080EE926000EEA22040E49
:1019D000EE1801E0CFD0EE5001E0CCD0EE5001E0A7
:1019E000C9D0EE5001E0C6D0070EE66EDECFE9FFAB
:1019F000DDCFEAFF080EE926000EEA22040EE926F2
:101A0000000EEA22010EEE1808E1EE5006E1EE505B
:101A100004E1EE5002E1000E01D0080E0409E66E6A
:101A2000FD0EDBCFE6FFFE0EDBCFE6FF11EC00F094
:101A3000E552E552E552E552000901E194D0070E66
:101A4000E66EDECFE9FFDDCFEAFF080EE926000EE5
:101A5000EA22040EE926000EEA22010EEE1808E141
:101A6000EE5006E1EE5004E1EE5002E1000E01D02E
:101A7000080E01090409E66EFD0EDBCFE6FFFE0E3F
:101A8000DBCFE6FF11EC00F0E552E552E552E552FE
:101A9000000969E0070EE66EDECFE9FFDDCFEAFF61
:101AA000080EE926000EEA22040EE926000EEA22BC
:101AB000010EEE1808E1EE5006E1EE5004E1EE50A2
:101AC00002E1000E01D0080E0409E66EFD0EDBCF28
:101AD000E6FFFE0EDBCFE6FF11EC00F0E552E5522B
:101AE000E552E55200093FE0FD0EDBCFE6FFFE0EBA
:101AF000DBCFE6FF66EC07F0E552E552E66EFB0E43
:101B0000DBCFE9FFFC0EDBCFEAFFE552E750EF6EDB
:101B1000070EE66EDECFE9FFDDCFEAFF080EE9260D
:101B2000000EEA22040EE926000EEA22010EEE184B
:101B300008E1EE5006E1EE5004E1EE5002E1000E45
:101B400001D0080E02090409E66EFD0EDBCFE6FFA8
:101B5000FE0EDBCFE6FF11EC00F0E552E552E55258
:101B6000E552000902E1000E07D0010EF36E020EED
:101B7000F3CFDBFF020EDB50006E030EE15C02E2EE
:101B8000E16AE552E16E0050E552E7CFD9FF12005D
:101B9000D9CFE6FFE1CFD9FF0C0EE126FD0EDBCF5A
:101BA000E9FFFE0EDBCFEAFF060EE926000EEA2271
:101BB000EECFDEFFEDCFDDFFDECFE9FFDDCFEAFFC9
:101BC000080EE926000EEA22020EEE1805E1EE509C
:101BD00003E1EE5001E1EE5002E0000EC1D0F90E3B
:101BE000DBCF00F0FA0EDBCF01F0FB0EDBCF02F013
:101BF000FC0EDBCF03F0DECFE9FFDDCFEAFF040E02
:101C0000E926000EEA22EE5000180CE1EE50011811
:101C100009E1EE50021806E1EE50031803E102E17B
:101C2000000E01D0010EE76E030EE7CFDBFFDB50A5
:101C3000070EE66EDECFE9FFDDCFEAFF080EE926EC
:101C4000000EEA22040EE926000EEA22010EEE182A
:101C500008E1EE5006E1EE5004E1EE5002E1000E24
:101C600001D0080E046EF90EDBCF00F0FA0EDBCFC8
:101C700001F0FB0EDBCF02F0FC0EDBCF03F00050D7
:101C800001100210031002E0010E01D0000E020943
:101C90000410E66EFD0EDBCFE6FFFE0EDBCFE6FFA7
:101CA00011EC00F0E552E552E552E552E76E020E06
:101CB000E7CFDBFFDB5014E0DECFE9FFDDCFEAFF4B
:101CC000040EE926000EEA22F90EDBCFEEFFFA0E33
:101CD000DBCFEEFFFB0EDBCFEEFFFC0EDBCFEEFF2C
:101CE000030EDB503BE0020EDB5038E0DECFE9FFB5
:101CF000DDCFEAFF180EE926000EEA22040EE926DF
:101D0000000EEA22D880EE54000EEE54000EEE547F
:101D1000000EEE5423E2DECFE9FFDDCFEAFF180E1E
:101D2000E926000EEA22040EE926000EEA22040E3D
:101D3000EECFDBFF050EEECFDBFF060EEECFDBFFB7
:101D4000070EEECFDBFFD950040FE66E000EDA204F
:101D5000E66E8AEC19F0E552E5520009020EDB50FE
:101D6000006E0C0EE15C02E2E16AE552E16E0050A9
:101D7000E552E7CFD9FF1200D9CFE6FFE1CFD9FF77
:101D8000030EE126DF6AFD0EDBCFE9FFFE0EDBCF9F
:101D9000EAFF060EE926000EEA22010EEECFDBFF77
:101DA000020EEDCFDBFF010EDBCFE9FF020EDBCF32
:101DB000EAFF080EE926000EEA22010EEE1805E100
:101DC000EE5003E1EE5001E1EE5042E0010EDBCFB8
:101DD000E6FF020EDBCFE6FF8CEC08F0E552E552A1
:101DE000000938E0010EDBCFE6FF020EDBCFE6FF95
:101DF000DDEC08F0E552E55200092CE0FD0EDBCFEA
:101E0000E6FFFE0EDBCFE6FFA3EC05F0E552E55260
:101E1000000920E0E66AE66AE66AE66AFD0EDBCFC4
:101E2000E6FFFE0EDBCFE6FF74EC01F0006E060E5F
:101E3000E15E005000090EE0FD0EDBCFE6FFFE0E76
:101E4000DBCFE6FFCBEC04F0E552E552000902E0FF
:101E5000010EDF6EDF500AE0010EDBCFE9FF020E5C
:101E6000DBCFEAFFEE68EE68EE68EE68DF50006EEA
:101E7000030EE15C02E2E16AE552E16E0050E552D8
:101E8000E7CFD9FF1200D9CFE6FFE1CFD9FF030E8C
:101E9000E126DF6AFD0EDBCFE9FFFE0EDBCFEAFFB6
:101EA000060EE926000EEA22010EEECFDBFF020E3F
:101EB000EDCFDBFF010EDBCFE9FF020EDBCFEAFF48
:101EC000080EE926000EEA22010EEE1838E1EE5067
:101ED00036E1EE5034E1EE5032E1010EDBCFE9FFA6
:101EE000020EDBCFEAFF180EE926000EEA22F90EF9
:101EF000DBCFEEFFFA0EDBCFEEFFFB0EDBCFEEFF0C
:101F0000FC0EDBCFEEFF010EDBCFE9FF020EDBCFD5
:101F1000EAFF180EE926000EEA22040EE926000E5A
:101F2000EA22F50EDBCFEEFFF60EDBCFEEFFF70E6B
:101F3000DBCFEEFFF80EDBCFEEFF010EDF6EDF50E2
:101F4000006E030EE15C02E2E16AE552E16E0050D0
:081F5000E552E7CFD9FF1200B2
:081F5800D9CFE6FFE1CFD9FF6C
:101F60008150100B02E0000E01D0010EE66EFB0E58
:101F7000DBCFE9FFFC0EDBCFEAFFE552E750EF6E67
:101F8000010EE552E7CFD9FF1200D9CFE6FFE1CF2E
:101F9000D9FF0C0EE126080EDB6A090EDB6A0A0E79
:101FA000DB6A0B0EDB6AD950F30FE96EFF0EDA2005
:101FB000EA6E040EEECFDBFF050EEECFDBFF060E62
:101FC000EECFDBFF070EEECFDBFFDE6ADE6ADE6AF6
:101FD000DD6ADD52DD52F70EDBCF00F0F80EDBCF0D
:101FE00001F0F90EDBCF02F0FA0EDBCF03F0D9CF10
:101FF000E9FFDACFEAFF0050EE5C0150EE580250E4
:10200000EE580350EE5823E2DFCF00F0010EDBCF95
:1020100001F0FB0EDB500024E96EFC0EDB500120CA
:10202000EA6EEF508B6ED950040FE66E000EDA2088
:10203000E66E8AEC19F0E552E552D9CFE9FFDACF26
:10204000EAFFEE2A000EEE22EE22EE22C4D7010EA7
:10205000006E0C0EE15C02E2E16AE552E16E0050B6
:10206000E552E7CFD9FF1200D9CFE6FFE1CFD9FF84
:10207000E6520201A06BDF6ADF50006E016A0E0EAD
:10208000005C000E015818E2DF50F76A360FF66E5A
:10209000340EF7220800F550E66EEA6ADF34FE0BD4
:1020A000EA36E96EA10EE926020EEA22E552E75071
:1020B000EE6EED6ADF2AE0D7E552E552E7CFD9FFB1
:1020C0001200AB0EE66E000EE66EBCEC0EF0E552B2
:1020D000E552000902E0000E01D0020E0201A06FDD
:1020E000120061C0E6FF62C0E6FF63C0E6FF64C0A5
:1020F000E6FFAB0EE66E000EE66E4AEC09F0006EEF
:10210000060EE15E0050000902E0000E01D0020E52
:102110000201A06F120061C0E6FF62C0E6FF63C06B
:10212000E6FF64C0E6FFAB0EE66E000EE66E00EC66
:102130000AF0006E060EE15E0050000902E0000E9B
:1021400001D0020E0201A06F120061C0E6FF62C062
:10215000E6FF63C0E6FF64C0E6FFAB0EE66E000E6E
:10216000E66E82EC0AF0006E060EE15E0050000999
:1021700002E0000E01D0020E0201A06F120061C049
:10218000E6FF62C0E6FF63C0E6FF64C0E6FFAB0E99
:10219000E66E000EE66E3AEC0BF0006E060EE15EA7
:1021A0000050000902E0000E01D0020E0201A06FF3
:1021B0001200D9CFE6FFE1CFD9FFE6523F0E006E05
:1021C000016A00016551005C000E015803E2020142
:1021D000030E63D0DF6A00016551DF5C62E2E66AEC
:1021E000E66AE66AE66AAB0EE66E000EE66EC8ECDC
:1021F0000DF0006E060EE15E005000094CE0DFCFEE
:1022000001F0026A036A046A610EE96E000EEA6E6A
:10221000EE500126EE500222EE500322EE50042230
:1022200001C0E6FF02C0E6FF03C0E6FF04C0E6FF10
:10223000AB0EE66E000EE66EAFEC0BF0056E060E12
:10224000E15E0550000927E0010EE66EE66AE66AE7
:10225000E66AAB0EE66E000EE66EC8EC0DF0066E9A
:10226000060EE15E0650000916E0DF50086AA10F75
:10227000076E020E082207C0E6FF08C0E6FFAB0E9D
:10228000E66E000EE66E32EC0CF0E552E552E552D9
:10229000E552000904E10201020EA06F04D0DF2A1A
:1022A0009AD70201A06BE552E552E7CFD9FF1200A1
:1022B000D9CFE6FFE1CFD9FFE6520A0E006E016AE0
:1022C00000016151005C000E015803E20201030E9F
:1022D00072D0DF6A00016151DF5C71E2DF50060DF0
:1022E000F3CFE9FFF4CFEAFF610EE926000EEA2200
:1022F000EECFE6FFEECFE6FFEECFE6FFEFCFE6FF55
:10230000AB0EE66E000EE66EAFEC0BF0006E060E46
:10231000E15E005000094DE0DF50060DF3CFE9FF0C
:10232000F4CFEAFF610EE926000EEA22040EE92648
:10233000000EEA22EFCF01F0026A036A046A01C0CC
:10234000E6FF02C0E6FF03C0E6FF04C0E6FFAB0EF7
:10235000E66E000EE66EC8EC0DF0056E060EE15E50
:102360000550000926E0DF50060DF3CFE9FFF4CF5A
:10237000EAFF610EE926000EEA22050EE926000EAC
:10238000EA22EF501AE0DF50016AA10F006E020E40
:10239000012200C0E6FF01C0E6FFAB0EE66E000EB4
:1023A000E66E32EC0CF0E552E552E552E5520009DA
:1023B00004E10201020EA06F04D0DF2A8BD70201D4
:1023C000A06BE552E552E7CFD9FF1200D9CFE6FF67
:1023D000E1CFD9FFE652060E006E016A000161519D
:1023E000005C000E015803E20201030E61D0DF6AB7
:1023F00000016151DF5C60E2DF50090DF3CFE9FFBE
:10240000F4CFEAFF610EE926000EEA22040EE92667
:10241000000EEA22EECFE6FFEECFE6FFEECFE6FFBC
:10242000EFCFE6FFDF50090DF3CFE9FFF4CFEAFF6E
:10243000610EE926000EEA22EECFE6FFEECFE6FFC0
:10244000EECFE6FFEFCFE6FFAB0EE66E000EE66ED8
:10245000D5EC0BF0006E0A0EE15E0050000926E09C
:10246000DF50090DF3CFE9FFF4CFEAFF610EE92653
:10247000000EEA22080EE926000EEA22EF501AE0CA
:10248000DF50016AA10F006E020E012200C0E6FFBC
:1024900001C0E6FFAB0EE66E000EE66E32EC0CF00D
:1024A000E552E552E552E552000904E10201020E4F
:1024B000A06F04D0DF2A9CD70201A06BE552E55241
:1024C000E7CFD9FF1200D9CFE6FFE1CFD9FF020E47
:1024D000E1263A0E006E016A00019F51005C000E79
:1024E000015803E20201030E54D0DF6A00019F513C
:1024F000DF5C53E2DFCF00F0016A026A036A610E1B
:10250000E96E000EEA6EEE500026EE500122EE500B
:102510000222EE50032200C0E6FF01C0E6FF02C027
:10252000E6FF03C0E6FFAB0EE66E000EE66EAFEC14
:102530000BF0046E060EE15E0450000928E0DF5047
:10254000EA6A650FE96E000EEA22EF50E66EAB0E06
:10255000E66E000EE66E7CEC0CF0E552E552E552BC
:10256000000915E0D950010FE66E000EDA20E66E84
:10257000AB0EE66E000EE66EC2EC0CF0E552E552D4
:10258000E552E552000903E0010EDB5004E10201CF
:10259000020EA06F04D0DF2AA9D70201A06B020EA1
:1025A000E15C02E2E16AE552E16EE552E7CFD9FF74
:1025B0001200D9CFE6FFE1CFD9FF020EE1260A0EC5
:1025C000006E016A00016151005C000E015803E2D7
:1025D0000201030E65D0DF6A00016151DF5C64E235
:1025E000DF50060DF3CFE9FFF4CFEAFF610EE926D5
:1025F000000EEA22EECFE6FFEECFE6FFEECFE6FFDB
:10260000EFCFE6FFAB0EE66E000EE66EAFEC0BF022
:10261000006E060EE15E0050000940E0DF50060D3E
:10262000F3CFE9FFF4CFEAFF610EE926000EEA22BC
:10263000040EE926000EEA22EF5034E0DF50060DCA
:10264000F3CFE9FFF4CFEAFF610EE926000EEA229C
:10265000050EE926000EEA22EF50E66EAB0EE66E9E
:10266000000EE66E7CEC0CF0E552E552E5520009F6
:1026700015E0D950010FE66E000EDA20E66EAB0EC3
:10268000E66E000EE66EC2EC0CF0E552E552E55245
:10269000E552000903E0010EDB5004E10201020EE5
:1026A000A06F04D0DF2A98D70201A06B020EE15C74
:1026B00002E2E16AE552E16EE552E7CFD9FF12008E
:1026C00065C0E6FF66C0E6FF67C0E6FF68C0E6FFDC
:1026D00061C0E6FF62C0E6FF63C0E6FF64C0E6FFDC
:1026E000AB0EE66E000EE66E43EC0FF0006E0A0EC7
:1026F000E15E0050000902E0000E01D0020E02016E
:10270000A06F12000201010EA06F1200938878984A
:102710007A987F94946A0001AA6B06EC09F0F3CFD3
:10272000B1F0F4CFB2F00001580EAD6F1F0EAE6FD6
:102730008A0EAF6F1F0EB06FAB6BAC6B1200000157
:10274000AA511DE1020108BF5FD0400EE66E600E87
:10275000E66E000EE66E1CEC18F0E552E552E5520E
:102760000001010EAA6F400EE66EA00EE66E020E8C
:10277000E66EE8EC19F0E552E552E5521200AA05C2
:1027800043E1000160510E0A2CE0050A28E0010A2D
:1027900024E0030A20E0010A1CE00F0A18E0010A05
:1027A00014E0030A10E0010A0CE0070A08E0010A3D
:1027B00004E0030A18E158DC17D083DC15D091DC63
:1027C00013D0A9DC11D0C1DC0FD0D9DC0DD0F1DCE5
:1027D0000BD06EDD09D0FADD07D075DE05D0E9DE5D
:1027E00003D06EDF01D08EDF02010CBF0DD0400E92
:1027F000E66EA00EE66E020EE66EE2EC17F0E55213
:0A280000E552E5520001AA6B120038
:06280A00D9CFE6FFE1CF8B
:10281000D9FFE652635032E16296020100513C0B4F
:10282000E842E8420D0828E1180E021923E1020EE1
:10283000031920E1100E026F020E036FDF6ADF50F2
:10284000006E016A080E005C000E015813E2DF50B2
:10285000EA6A180FE96E020EEA22EF50E66EDF50C8
:10286000EA6A100FE96E020EEA22E552E750EF6EB7
:10287000DF2AE5D711D80AD04AD808D0040E635C05
:1028800003E1629661D802D0000E01D0010EE5523C
:10289000E552E7CFD9FF1200D9CFE6FFE1CFD9FF4C
:1028A000E652020104BF046B0001C26BC16B000160
:1028B000B36B0001B86BB96BE3EC15F0DF6ADF5066
:1028C000006E016A010E005C000E01581AE2000160
:1028D000B35117E1F76ADF34FE0BF736F66E740E6C
:1028E000F626320EF7220900F5CF00F00800F5CFEA
:1028F00001F004D001C0FAFF0050F96EFBDFDF2ABF
:10290000DED717D9E552E552E7CFD9FF1200020E04
:102910000001C15D0EE1B6D80201180E026F020E71
:10292000036F080E016F00BD02D0C80E0BD0880ED9
:1029300009D044D90201080E016F100E026F020E79
:10294000036F8C0E006F1200040E0001BA5D0CE1E3
:1029500012C25CFF0F015C51000803E20001050E8A
:1029600002D00001030EBA6F0001C10510E111D8B9
:10297000020E0001C25D03E10201840E06D00201D5
:1029800004BD02D0C80E01D0880E046F1200DEEF25
:1029900015F0D9CFE6FFE1CFD9FF020EE126000105
:1029A000080EB85D000EB9590EE2B8C0DEFFB9C01E
:1029B000DDFF0001C25102E1010E03D0C20506E1B4
:1029C000020EC26F03D0080EDE6EDD6A02010493B0
:1029D0000491010EDB500413DFCF05F2000EDB5033
:1029E0000001B85F010EDB50B95B0001180EB66F35
:1029F000020EB76F0001BBA31ED0D9CFE9FFDACF1B
:102A0000EAFFEE50ED1034E0B4C0F6FFB5C0F7FFBA
:102A10000800F550B6C0E9FFB7C0EAFFEF6E00014D
:102A2000B62B000EB7230001B42BB523DF06010E31
:102A3000E4E2DB06E2D7D9CFE9FFDACFEAFFEE50D6
:102A4000ED1016E0B4C0E9FFB5C0EAFFEF50B6C024
:102A5000E9FFB7C0EAFFEF6E0001B62B000EB72307
:102A60000001B42BB523DF06010EE5E2DB06E3D758
:102A7000020EE15C02E2E16AE552E16EE552E7CF67
:102A8000D9FF1200D9CFE6FFE1CFD9FF040EE1262E
:102A9000020ED9CFDBFF030EDACFDBFF020EDBCF56
:102AA000E9FF030EDBCFEAFF01C2EFFF02010015D1
:102AB000E66E010EE76E020EDBCFE9FF030EDBCF01
:102AC000EAFFE750E926000EEA22E552E750EF6EF2
:102AD000DE500001B827DD50B9230001180EB46F95
:102AE000020EB56FD9CFE9FFDACFEAFFEE50ED1055
:102AF00016E0B4C0E9FFB5C0EAFFEF50B6C0E9FF89
:102B0000B7C0EAFFEF6E0001B62B000EB72300013D
:102B1000B42BB523DF06010EE5E2DB06E3D7040E96
:102B2000E15C02E2E16AE552E16EE552E7CFD9FFEE
:102B3000120064980001B3510BE10201080E016F0D
:102B4000100E026F020E036F840E006F020123D07D
:102B5000020110AF22D00001B8510201165D000140
:102B6000B9510201175904E216C2B8F017C2B9F000
:102B700010DF0001010EC16F0201080E016F100E7F
:102B8000026F020E036F800E006F0201180E066FB7
:102B9000020E076FC80E046F12000001020EC16F13
:102BA0000201056BC80E046F0201080E016F180EBA
:102BB000026F020E036FC80E006F12000001C16B9E
:062BC0000201046B12008B
:0A2BC60002011051600BE842E842E2
:102BD000E842E842E842000901E012001151070A08
:102BE0004DE00B0A4BE0070A3CE0010A27E00B0A24
:102BF00023E0020A21E0030A1DE0080A12E0010AAC
:102C00000EE00F0A0AE0030A01E012000001010EC3
:102C1000B36F0001040EBA6F12003FEF16F096EF8B
:102C200016F00001010EB36F0001BC0EB46F000E70
:102C3000B56F10D0BDEF16F009EF17F00001010ECF
:102C4000B36F020114510001B46FB56BBD0EB42710
:102C5000000EB5230001BB93010E0001B86FB96BE4
:102C600012000001010EB36F02011451EA6ABD0F98
:102C7000E96E000EEA2212C2EFFF12001200800E6F
:102C80000201105D52E11351030A30E0010A0CE029
:102C9000030A49E10001010EB36F0001D20EB46FC7
:102CA000310EB56F120E3CD00001010EB36F020160
:102CB0001251F66EF76AD890F636F7366A0EF62697
:102CC000320EF7220900F5CFB4F00A00F5CFB5F0C7
:102CD000020E0001F76AB425F66EB551F72209001D
:102CE000F5CFB8F00A00F5CFB9F01DD00001010E04
:102CF000B36F02011251F66EF76AD890F636F736C6
:102D00006E0EF626320EF7220900F5CFB4F00A0057
:102D1000F5CFB5F0B4C0F6FFB5C0F7FF0800F55029
:102D20000001B86FB96B0001BB8312000001010EF6
:102D3000B36F070EE66E540EE66E0F0EE66EE8EC0D
:102D400019F0E552E552E552010EE66EBD0EE66E53
:102D5000000EE66EE8EC19F0E552E552E55212C2BB
:102D6000BCF00201125104E10001050EBA6F12001D
:102D70000001060EBA6FCCEF17F00201186B196B49
:102D8000020110511F0B020A13E0030A0DE0010AB1
:102D900031E10001010EB36F020118810001BBA1F6
:102DA00029D00201188326D00001010EB36F22D072
:102DB0000001010EB36F020114510F0B080DF35007
:102DC000016A000F006E020E01221451800B01E017
:102DD000010E040DF35000010024B66F000E012017
:102DE000B76FB6C0E9FFEA6EEF50040B03E00201D3
:102DF000010E186F0001B3050BE10001180EB46F4E
:102E0000020EB56F0001BB93020E0001B86FB96BE3
:102E100012000201120510E110511F0B00090CE114
:102E20000001010EB36F030E0201115D03E1000109
:102E3000BB8102D00001BB910201125136E1105159
:102E40001F0B020832E114510F0B00092EE00001A4
:102E5000010EB36F020114510F0B080DF350016AFC
:102E6000000F006E020E01221451800B01E0010ED2
:102E7000040DF35000010024B66F000E0120B76F5F
:102E8000030E0201115D02E1840E03D014AF07D0DE
:102E9000400EB6C0E9FFB7C0EAFFEF6E1200880E21
:0C2EA000B6C0E9FFB7C0EAFFEF6E1200F9
:042EAC0002011051BE
:102EB0001F0B010801E01200145101E01200060E80
:102EC000115D28E11351230A23E0010A0FE0030AF0
:102ED0001FE10001020EB36F0001BC0505E1000116
:102EE000F60EB46F310EB56F090E0FD00001020E51
:102EF000B36F0001BC0505E100014D0EB46F320E49
:102F0000B56F0001BC0504E11D0E0001B86FB96B7F
:102F10000001BB8302011051600BE842E842E84225
:102F2000E842E842010801E0120011510B0A2CE0CE
:102F3000080A1BE0090A13E0080A09E00B0A05E089
:102F4000080A01E01200CAEF17F0CBEF17F00001FA
:102F5000020EB36F0001BE0EB46F000E0DD0000163
:102F6000020EB36F13C2BEF012000001020EB36F67
:102F70000001BF0EB46F000EB56F0001BB93010ED0
:102F80000001B86FB96B12000001020EB36F12C2DC
:102F9000BFF01200120012000001C06B0F011E0EE4
:102FA000546F0201400E096F200E0A6F020E0B6F64
:102FB000880E086F0201600E0E6F020E0F6F400E3A
:102FC0000C6F1200D9CFE6FFE1CFD9FFE652FC0E1D
:102FD000DB50400805E2400EF36EFC0EF3CFDBFF42
:102FE000DF6AFC0EDB50DF5C19E2DF50E76EFD0E9E
:102FF000DBCFE9FFFE0EDBCFEAFFE750E926000E4C
:10300000EA22EF50E66EDF50EA6A600FE96E020EC8
:10301000EA22E552E750EF6EDF2AE3D7FC0EDBCF62
:103020000DF2400E02010C170C7D880E0C13E552B8
:10303000E552E7CFD9FF1200D9CFE6FFE1CFD9FFA4
:103040000001C06B020108BF30D0FC0EDBCF00F0E6
:103050000951D880005403E2FC0E09C2DBFF0001D5
:10306000C06BFC0EDB50C05D19E2C051EA6A200F54
:10307000E96E020EEA22EF50E66EC051E76EFD0ED9
:10308000DBCFE9FFFE0EDBCFEAFFE750E926000EBB
:10309000EA22E552E750EF6EC02BE3D70201400E63
:1030A000096F0817087D880E08130001C051E5520A
:0630B000E7CFD9FF12007A
:0A30B60064A60CD80001BA0508E179
:1030C00064BA06D0626A606A60806088020EBA6F75
:1030D0001200646A606A64860001010EBA6F120011
:1030E0000001BA5101E1120062B425D864B21200A5
:1030F00062B03AD862B817D862BA24D8030E000179
:10310000BA5D01E212000001C36B040EC35D0AE266
:1031100062A608D005EC14F0000901E162960001F6
:10312000C32BF3D71200608462986482A194A084B8
:103130000300A09412006492609462A402D062948E
:10314000FCD712000F0153A10DD0800E0201005DCB
:1031500007E1840E0201045D03E102018C0E006FA1
:103160000F015391629A12000F015F6B626A0F01A7
:103170009F0E5B6F7B0E606E0F015C6B070EE66E41
:10318000540EE66E0F0EE66EE8EC19F0E552E552CD
:10319000E5520F01160E536F62A605D0629600D05D
:1031A00000D00000F9D76498DEEC15F00201080E9B
:1031B000016F0201100E026F020E036F02018C0EEE
:1031C000006F0001BB910001BC6B0001030EBA6FE0
:0231D0001200EB
:0E31D2001201000200000008D8043C000200B8
:1031E0000102000109022900010100C032090400A6
:1031F000000203000000092111010001221D000747
:103200000581034000010705010340000104030993
:10321000041C034B006500760069006E0020004529
:1032200000730068006200610063006800200355BD
:103230000053004200200050004500500020004193
:10324000006400610070007400650072000600FFF9
:103250000901A10119012940150026FF00750895F3
:10326000408100190129409100C0E431E4310D3260
:0632700011322D32AC2EDC
:0A327600200EF66E000EF76E000E3B
:10328000F86E00010900F550A56F0900F550A66F12
:1032900003E1A56701D03DD00900F550A06F0900FA
:1032A000F550A16F0900F550A26F09000900F55013
:1032B000E96E0900F550EA6E090009000900F550B1
:1032C000A36F0900F550A46F09000900F6CFA7F01D
:1032D000F7CFA8F0F8CFA9F0A0C0F6FFA1C0F7FF84
:1032E000A2C0F8FF0001A35302E1A45307E00900C4
:1032F000F550EE6EA307F8E2A407F9D7A7C0F6FFD2
:10330000A8C0F7FFA9C0F8FF0001A507000EA65B43
:04331000BFD7120011
:0C331400D9CFE6FFE1CFD9FF040EE1267F
:10332000FD0EDBCFE9FFFE0EDBCFEAFFEECFDFFFC6
:10333000010EEECFDBFF020EEECFDBFF030EEECF72
:10334000DBFFD9CFE9FFDACFEAFFEF06EECF00F0DF
:10335000000EEF5AEECF01F0EF5AEECF02F0EF5A27
:10336000EFCF03F0D8800054000E0154000E025439
:10337000000E0354E6E3010E006E040EE15C02E26F
:10338000E16AE552E16E0050E552E7CFD9FF120045
:103390006190619261846188619E0001BA6B000155
:1033A000BB6B0001BC6B12005BEC18F070EF18F007
:1033B000EFDF86EC13F00400F7DF060E0001BA5DC4
:1033C00005E16450020B02E19FEC13F0F4D7120008
:1033D000D9CFE6FFE1CFD9FFFD0EDBCFE9FFFE0E2F
:1033E000DBCFEAFFFC0EDB5004E0EE6AFC0EDB06EE
:0A33F000F9D7E552E7CFD9FF12002C
:0633FA00000EF36E00EE70
:1034000000F0030E01D81200EA6002D0EE6AFCD789
:0A341000F350E9601200EE6AFCD7E9
:06341A0011EE00F021EEAE
:1034200000F0F86A2A9C3BEC19F022EC1AF0D8EC78
:0634300019F0FBD71200A9
:0A34360031384631344B3530203177
:043440002E303000FA
:02344400120074
:020000040030CA
:0100000000FF
:0100010032CC
:0100020001FC
:010003001EDE
:0100050000FA
:010006008178
:0100080003F4
:01000900C036
:01000A0003F2
:01000B00E014
:01000C0003F0
:01000D0040B2
:00000001FF
